:1000000071C0000081C000007FC000007DC0000002
:100010007BC0000079C0000077C0000075C0000000
:1000200073C0000071C000006FC000006DC0000010
:100030006BC0000069C0000067C0000065C0000020
:1000400063C0000061C000005FC000005DC0000030
:100050005BC0000059C0000057C0000055C0000040
:1000600053C0000051C000004FC000004DC0000050
:100070004BC00000FFC0000047C0000030C10000BE
:1000800043C0000041C000003FC000003DC0000070
:100090003BC0000039C0000037C0000035C0000080
:1000A00033C0000031C000002FC000002DC0000090
:1000B0002BC0000029C0000027C0000025C00000A0
:1000C00023C0000021C000001FC000001DC00000B0
:1000D0001BC0000019C0000017C0000015C00000C0
:1000E00013C0000011241FBECFEFD1E2DEBFCDBF91
:1000F00000E00CBF22E0A0E0B2E001C01D92AE30F3
:10010000B207E1F702D043C17BCF88E08AB91BB8C0
:1001100088E38DB91EB810BA11BA10920A01109274
:100120000B01789480E680937C008FEC80937A00BA
:100130008AEA809390008AE18093910020E43CE970
:10014000309397002093960093E09093A0008093C3
:10015000A10080E2809372008FEF9FEF9093A9003F
:100160008093A8000F2EF0EC8F2EFAED9F2EA12C7D
:10017000B12CF02D0F2EFCE9CF2ED12CF02D0F2E0F
:10018000FFEA7F2EF02D0F2EF0E56F2EF02D0F2EB3
:10019000F0EDEF2EF7E0FF2EF02D0F2EF0EA4F2EB0
:1001A000FFE05F2EF02D0AE910E00F2EF8EE2F2E63
:1001B000F3E03F2EF02DC8E9D0E02091030230910A
:1001C000040240E050E0C501B401A3D0309309021D
:1001D000209308028091000290910102F601918320
:1001E000808380910A02803518F460920A0204C06C
:1001F000803B10F070920A028091020220910A0264
:1002000030E0281B310946EF4203C001439F900DA7
:1002100011248854944F90930C0280930B02813ADE
:10022000EFE09E0728F050920C0240920B0207C0AC
:10023000803D974020F4F0920C02E0920B028091F6
:100240000B0290910C02F8019183808380910D0242
:10025000811105C0F0920702E092060204C03092BC
:10026000070220920602809106029091070299836C
:100270008883A3CF1F920F920FB60F9211240BB653
:100280000F928F93EF93FF9380917C0080FD0FC0BE
:100290008091790080930202ECE7F0E08081816038
:1002A0008083EAE7F0E08081806480830EC08091E3
:1002B000790080930A02ECE7F0E080818E7F8083F2
:1002C000EAE7F0E0808180648083FF91EF918F9175
:1002D0000F900BBE0F900FBE0F901F9018951F929E
:1002E0000F920FB60F9211248F939F9380919600D7
:1002F00090919700909304028093030210929500CE
:10030000109294009F918F910F900FBE0F901F90AD
:100310001895052E97FB16F400940FD057FD05D0C5
:1003200014D007FC02D046F408C050954095309593
:1003300021953F4F4F4F5F4F089590958095709551
:1003400061957F4F8F4F9F4F0895A1E21A2EAA1BF0
:10035000BB1BFD010DC0AA1FBB1FEE1FFF1FA21775
:10036000B307E407F50720F0A21BB30BE40BF50B72
:10037000661F771F881F991F1A9469F760957095FB
:10038000809590959B01AC01BD01CF010895F89433
:02039000FFCF9D
:00000001FF
